{
  "transactions": [
    {
      "hash": "0xd6d34701781be1510d453162a4df457063481315fba5cc115a3a9b92e43a021c",
      "transactionType": "CREATE",
      "contractName": "DemoOracle",
      "contractAddress": "0xe3ea6971c66121cb24f878aee30f78a39b3fc94b",
      "function": null,
      "arguments": [
        "0x666AA4F5a674b9E50d8843F45a6Ef40244318550"
      ],
      "transaction": {
        "from": "0x666aa4f5a674b9e50d8843f45a6ef40244318550",
        "gas": "0x6350c",
        "value": "0x0",
        "input": "0x60803460b857601f6104f438819003918201601f19168301916001600160401b0383118484101760bc5780849260209460405283398101031260b857516001600160a01b0381169081900360b857801560a5575f80546001600160a01b031981168317825560405192916001600160a01b03909116907f8be0079c531659141344cd1fd0a4f28419497f9722a3daafe3b4186f6b6457e09080a361042390816100d18239f35b631e4fbdf760e01b5f525f60045260245ffd5b5f80fd5b634e487b7160e01b5f52604160045260245ffdfe60806040526004361015610011575f80fd5b5f3560e01c8062e4768b146102de57806331a1b8f6146101b457806341976e0914610161578063715018a61461010a5780638da5cb5b146100e35763f2fde38b1461005a575f80fd5b346100df5760203660031901126100df57610073610348565b61007b6103c7565b6001600160a01b031680156100cc575f80546001600160a01b03198116831782556001600160a01b0316907f8be0079c531659141344cd1fd0a4f28419497f9722a3daafe3b4186f6b6457e09080a3005b631e4fbdf760e01b5f525f60045260245ffd5b5f80fd5b346100df575f3660031901126100df575f546040516001600160a01b039091168152602090f35b346100df575f3660031901126100df576101226103c7565b5f80546001600160a01b0319811682556001600160a01b03167f8be0079c531659141344cd1fd0a4f28419497f9722a3daafe3b4186f6b6457e08280a3005b346100df5760203660031901126100df576001600160a01b03610182610348565b16805f52600160205260405f205480156101a157602090604051908152f35b506314f3191760e11b5f5260045260245ffd5b346100df5760403660031901126100df5760043567ffffffffffffffff81116100df576101e590369060040161035e565b60243567ffffffffffffffff81116100df5761020590369060040161035e565b9161020e6103c7565b8281036102a7575f5b81811061022057005b8061022e600192868661038f565b35828060a01b0361024861024384878b61038f565b6103b3565b165f528260205260405f205561026261024382858961038f565b7ff9a09e2869a1f88523f00504328d7965866201bafe501573db2e114e3375a086602061029084898961038f565b3592604051938452858060a01b031692a201610217565b60405162461bcd60e51b815260206004820152600f60248201526e0d8cadccee8d040dad2e6dac2e8c6d608b1b6044820152606490fd5b346100df5760403660031901126100df576102f7610348565b7ff9a09e2869a1f88523f00504328d7965866201bafe501573db2e114e3375a0866020602435926103266103c7565b6001600160a01b03165f818152600183526040908190208590555193845292a2005b600435906001600160a01b03821682036100df57565b9181601f840112156100df5782359167ffffffffffffffff83116100df576020808501948460051b0101116100df57565b919081101561039f5760051b0190565b634e487b7160e01b5f52603260045260245ffd5b356001600160a01b03811681036100df5790565b5f546001600160a01b031633036103da57565b63118cdaa760e01b5f523360045260245ffdfea264697066735822122048db812d87ffae150122a2bb0c00c69debca0e8b4bb2ae3c96d023fddb2c744564736f6c634300081c0033000000000000000000000000666aa4f5a674b9e50d8843f45a6ef40244318550",
        "nonce": "0x7",
        "chainId": "0x138b"
      },
      "additionalContracts": [],
      "isFixedGasLimit": false
    },
    {
      "hash": "0x6ef79b245fafda8c832368dede8d5aefb2bdf3426580623c20d3af6df5b49ec6",
      "transactionType": "CALL",
      "contractName": "DemoOracle",
      "contractAddress": "0xe3ea6971c66121cb24f878aee30f78a39b3fc94b",
      "function": "setPriceBatch(address[],uint256[])",
      "arguments": [
        "[0x0000000000000000000000000000000000000001, 0x0000000000000000000000000000000000000002, 0x0000000000000000000000000000000000000003]",
        "[3800000000000000000000, 1000000000000000000, 1200000000000000000]"
      ],
      "transaction": {
        "from": "0x666aa4f5a674b9e50d8843f45a6ef40244318550",
        "to": "0xe3ea6971c66121cb24f878aee30f78a39b3fc94b",
        "gas": "0x8165",
        "value": "0x0",
        "input": "0x31a1b8f6000000000000000000000000000000000000000000000000000000000000004000000000000000000000000000000000000000000000000000000000000000c0000000000000000000000000000000000000000000000000000000000000000300000000000000000000000000000000000000000000000000000000000000010000000000000000000000000000000000000000000000000000000000000002000000000000000000000000000000000000000000000000000000000000000300000000000000000000000000000000000000000000000000000000000000030000000000000000000000000000000000000000000000cdff97fabcb46000000000000000000000000000000000000000000000000000000de0b6b3a764000000000000000000000000000000000000000000000000000010a741a462780000",
        "nonce": "0x8",
        "chainId": "0x138b"
      },
      "additionalContracts": [],
      "isFixedGasLimit": false
    },
    {
      "hash": "0x626689b606a4bb23fe3837c5d5a177db23b2e4641f33c7f849e28b21e164e576",
      "transactionType": "CALL",
      "contractName": null,
      "contractAddress": "0x27dae5ca1b42918f13b7b454a76e5d3bbcc6989b",
      "function": "setPriceOracle(address)",
      "arguments": [
        "0xe3ea6971C66121Cb24f878AeE30f78A39B3fc94b"
      ],
      "transaction": {
        "from": "0x666aa4f5a674b9e50d8843f45a6ef40244318550",
        "to": "0x27dae5ca1b42918f13b7b454a76e5d3bbcc6989b",
        "gas": "0x9c4e",
        "value": "0x0",
        "input": "0x530e784f000000000000000000000000e3ea6971c66121cb24f878aee30f78a39b3fc94b",
        "nonce": "0x9",
        "chainId": "0x138b"
      },
      "additionalContracts": [],
      "isFixedGasLimit": false
    },
    {
      "hash": "0x04d15c8fd20b6a31e4e1987cb6b1d187a1e5d7e6f4f7b8ab0d6a168fe3a553b8",
      "transactionType": "CALL",
      "contractName": null,
      "contractAddress": "0x943bef0f81b47d1aba4b2efa05624e041595706d",
      "function": "createChallenge(uint64,uint64,uint128,uint128,uint128,address[])",
      "arguments": [
        "1780703163",
        "1780789563",
        "10000000000000000000000",
        "0",
        "0",
        "[0x0000000000000000000000000000000000000001, 0x0000000000000000000000000000000000000002, 0x0000000000000000000000000000000000000003]"
      ],
      "transaction": {
        "from": "0x666aa4f5a674b9e50d8843f45a6ef40244318550",
        "to": "0x943bef0f81b47d1aba4b2efa05624e041595706d",
        "gas": "0x387f8",
        "value": "0x0",
        "input": "0x2594e3e1000000000000000000000000000000000000000000000000000000006a235fbb000000000000000000000000000000000000000000000000000000006a24b13b00000000000000000000000000000000000000000000021e19e0c9bab24000000000000000000000000000000000000000000000000000000000000000000000000000000000000000000000000000000000000000000000000000000000000000000000000000000000000000000000000000000000000000000000000000c00000000000000000000000000000000000000000000000000000000000000003000000000000000000000000000000000000000000000000000000000000000100000000000000000000000000000000000000000000000000000000000000020000000000000000000000000000000000000000000000000000000000000003",
        "nonce": "0xa",
        "chainId": "0x138b"
      },
      "additionalContracts": [],
      "isFixedGasLimit": false
    },
    {
      "hash": "0xf94e6a2464e6540d08a290cc85468e5722c54a7e43793298f730368dda13e037",
      "transactionType": "CALL",
      "contractName": null,
      "contractAddress": "0xd12719de9e5f76c2a6c2a91cdf2f0ff65d366bed",
      "function": "registerAgent(address,bytes32,string)",
      "arguments": [
        "0xC1cC95cB64c08BC0fb69CA380d6227a9Ed061C4e",
        "0x69fe5d80ea0a9385d3eeda63ec0554f9b08a7e9e7d1252274663c42319869f44",
        "ipfs://momentum-strategy"
      ],
      "transaction": {
        "from": "0x666aa4f5a674b9e50d8843f45a6ef40244318550",
        "to": "0xd12719de9e5f76c2a6c2a91cdf2f0ff65d366bed",
        "gas": "0x43f10",
        "value": "0x0",
        "input": "0x7d63cec7000000000000000000000000c1cc95cb64c08bc0fb69ca380d6227a9ed061c4e69fe5d80ea0a9385d3eeda63ec0554f9b08a7e9e7d1252274663c42319869f4400000000000000000000000000000000000000000000000000000000000000600000000000000000000000000000000000000000000000000000000000000018697066733a2f2f6d6f6d656e74756d2d73747261746567790000000000000000",
        "nonce": "0xb",
        "chainId": "0x138b"
      },
      "additionalContracts": [],
      "isFixedGasLimit": false
    },
    {
      "hash": "0x794a48a71d50580ea85281dec5ceb3a48aa4d7387d5360def78bd167fea0623d",
      "transactionType": "CALL",
      "contractName": null,
      "contractAddress": "0xd12719de9e5f76c2a6c2a91cdf2f0ff65d366bed",
      "function": "registerAgent(address,bytes32,string)",
      "arguments": [
        "0x255f36970464f7Ab35b127c34b766496a1961a65",
        "0xb4a8485ec922165cf4ea273c172586b2529ce52b902256e2c8809653e5f7df09",
        "ipfs://mean-reversion-strategy"
      ],
      "transaction": {
        "from": "0x666aa4f5a674b9e50d8843f45a6ef40244318550",
        "to": "0xd12719de9e5f76c2a6c2a91cdf2f0ff65d366bed",
        "gas": "0x43f6e",
        "value": "0x0",
        "input": "0x7d63cec7000000000000000000000000255f36970464f7ab35b127c34b766496a1961a65b4a8485ec922165cf4ea273c172586b2529ce52b902256e2c8809653e5f7df090000000000000000000000000000000000000000000000000000000000000060000000000000000000000000000000000000000000000000000000000000001e697066733a2f2f6d65616e2d726576657273696f6e2d73747261746567790000",
        "nonce": "0xc",
        "chainId": "0x138b"
      },
      "additionalContracts": [],
      "isFixedGasLimit": false
    },
    {
      "hash": "0x4f74df09dce6118a9bbf9b9c67bd7dfe9f3122d468f8a864ffe5f7d11f19afac",
      "transactionType": "CALL",
      "contractName": null,
      "contractAddress": "0xd12719de9e5f76c2a6c2a91cdf2f0ff65d366bed",
      "function": "registerAgent(address,bytes32,string)",
      "arguments": [
        "0x9c68b3427d8014090a695B419BD7c55Ab8773150",
        "0xc030b869d04c8f147c0d04907446296542a98a1adfaaace40f316fa612e91d12",
        "ipfs://claude-strategy"
      ],
      "transaction": {
        "from": "0x666aa4f5a674b9e50d8843f45a6ef40244318550",
        "to": "0xd12719de9e5f76c2a6c2a91cdf2f0ff65d366bed",
        "gas": "0x43eef",
        "value": "0x0",
        "input": "0x7d63cec70000000000000000000000009c68b3427d8014090a695b419bd7c55ab8773150c030b869d04c8f147c0d04907446296542a98a1adfaaace40f316fa612e91d1200000000000000000000000000000000000000000000000000000000000000600000000000000000000000000000000000000000000000000000000000000016697066733a2f2f636c617564652d737472617465677900000000000000000000",
        "nonce": "0xd",
        "chainId": "0x138b"
      },
      "additionalContracts": [],
      "isFixedGasLimit": false
    },
    {
      "hash": "0x2682d72e8b0ed29edccf62931f5847bde9fef0b500b14f48608040ffcb45f8ed",
      "transactionType": "CALL",
      "contractName": null,
      "contractAddress": "0x943bef0f81b47d1aba4b2efa05624e041595706d",
      "function": "enterAgent(uint256,uint256)",
      "arguments": [
        "1",
        "1"
      ],
      "transaction": {
        "from": "0x666aa4f5a674b9e50d8843f45a6ef40244318550",
        "to": "0x943bef0f81b47d1aba4b2efa05624e041595706d",
        "gas": "0x23db6",
        "value": "0x0",
        "input": "0xd158093a00000000000000000000000000000000000000000000000000000000000000010000000000000000000000000000000000000000000000000000000000000001",
        "nonce": "0xe",
        "chainId": "0x138b"
      },
      "additionalContracts": [],
      "isFixedGasLimit": false
    },
    {
      "hash": "0x57ded346c746292235c670e0b47d2832bd4b9ca814369e4277125765c01be6ac",
      "transactionType": "CALL",
      "contractName": null,
      "contractAddress": "0x943bef0f81b47d1aba4b2efa05624e041595706d",
      "function": "enterAgent(uint256,uint256)",
      "arguments": [
        "1",
        "2"
      ],
      "transaction": {
        "from": "0x666aa4f5a674b9e50d8843f45a6ef40244318550",
        "to": "0x943bef0f81b47d1aba4b2efa05624e041595706d",
        "gas": "0x1e173",
        "value": "0x0",
        "input": "0xd158093a00000000000000000000000000000000000000000000000000000000000000010000000000000000000000000000000000000000000000000000000000000002",
        "nonce": "0xf",
        "chainId": "0x138b"
      },
      "additionalContracts": [],
      "isFixedGasLimit": false
    },
    {
      "hash": "0x7f88c40f8098b16ea3465e096a9ef4f4a791e6eb2db5d3573457b9ba0bdc42e5",
      "transactionType": "CALL",
      "contractName": null,
      "contractAddress": "0x943bef0f81b47d1aba4b2efa05624e041595706d",
      "function": "enterAgent(uint256,uint256)",
      "arguments": [
        "1",
        "3"
      ],
      "transaction": {
        "from": "0x666aa4f5a674b9e50d8843f45a6ef40244318550",
        "to": "0x943bef0f81b47d1aba4b2efa05624e041595706d",
        "gas": "0x1e173",
        "value": "0x0",
        "input": "0xd158093a00000000000000000000000000000000000000000000000000000000000000010000000000000000000000000000000000000000000000000000000000000003",
        "nonce": "0x10",
        "chainId": "0x138b"
      },
      "additionalContracts": [],
      "isFixedGasLimit": false
    }
  ],
  "receipts": [
    {
      "status": "0x1",
      "cumulativeGasUsed": "0x56d01",
      "logs": [
        {
          "address": "0xe3ea6971c66121cb24f878aee30f78a39b3fc94b",
          "topics": [
            "0x8be0079c531659141344cd1fd0a4f28419497f9722a3daafe3b4186f6b6457e0",
            "0x0000000000000000000000000000000000000000000000000000000000000000",
            "0x000000000000000000000000666aa4f5a674b9e50d8843f45a6ef40244318550"
          ],
          "data": "0x",
          "blockHash": "0x848841daea1604a4e9ef541cb02dca9fbf84848294b80635856bda605b13f35d",
          "blockNumber": "0x25be774",
          "blockTimestamp": "0x6a2351c9",
          "transactionHash": "0xd6d34701781be1510d453162a4df457063481315fba5cc115a3a9b92e43a021c",
          "transactionIndex": "0x1",
          "logIndex": "0x0",
          "removed": false
        }
      ],
      "logsBloom": "0x00000000000000000000000000000000000000000000080000800000000000000000000000000000000000000000000000000000000000000000000000000000000000000000000010000000000000000001000000000000000000000000000000000000020000000000000000000a00000000000000000800000000000000400000000000000000000004000000000000000000000000000000000000000000000000000000000000000000000000000000000000000000000000000000000000000000000000000000000000000000000000000000000000000000000020000000000800000000000000000000000000000000000000000000000000000000",
      "type": "0x2",
      "transactionHash": "0xd6d34701781be1510d453162a4df457063481315fba5cc115a3a9b92e43a021c",
      "transactionIndex": "0x1",
      "blockHash": "0x848841daea1604a4e9ef541cb02dca9fbf84848294b80635856bda605b13f35d",
      "blockNumber": "0x25be774",
      "gasUsed": "0x4b832",
      "effectiveGasPrice": "0xba43b7401",
      "blobGasUsed": "0x50910",
      "from": "0x666aa4f5a674b9e50d8843f45a6ef40244318550",
      "to": null,
      "contractAddress": "0xe3ea6971c66121cb24f878aee30f78a39b3fc94b",
      "daFootprintGasScalar": "0x190",
      "l1BaseFeeScalar": "0x2943b",
      "l1BlobBaseFee": "0x39597f5",
      "l1BlobBaseFeeScalar": "0x45567c",
      "l1Fee": "0x1b1347ef941e89",
      "l1GasPrice": "0x3c2d1e92",
      "l1GasUsed": "0x339b",
      "operatorFeeConstant": "0x0",
      "operatorFeeScalar": "0x5f5e100",
      "tokenRatio": "0xc01"
    },
    {
      "status": "0x1",
      "cumulativeGasUsed": "0x2c2e5",
      "logs": [
        {
          "address": "0xe3ea6971c66121cb24f878aee30f78a39b3fc94b",
          "topics": [
            "0xf9a09e2869a1f88523f00504328d7965866201bafe501573db2e114e3375a086",
            "0x0000000000000000000000000000000000000000000000000000000000000001"
          ],
          "data": "0x0000000000000000000000000000000000000000000000cdff97fabcb4600000",
          "blockHash": "0x24a16399d1e805e8f74b16e61762b509a170ef44f03c4aca1fb4d1fd6e6aeb7d",
          "blockNumber": "0x25be776",
          "blockTimestamp": "0x6a2351cd",
          "transactionHash": "0x6ef79b245fafda8c832368dede8d5aefb2bdf3426580623c20d3af6df5b49ec6",
          "transactionIndex": "0x2",
          "logIndex": "0x1",
          "removed": false
        },
        {
          "address": "0xe3ea6971c66121cb24f878aee30f78a39b3fc94b",
          "topics": [
            "0xf9a09e2869a1f88523f00504328d7965866201bafe501573db2e114e3375a086",
            "0x0000000000000000000000000000000000000000000000000000000000000002"
          ],
          "data": "0x0000000000000000000000000000000000000000000000000de0b6b3a7640000",
          "blockHash": "0x24a16399d1e805e8f74b16e61762b509a170ef44f03c4aca1fb4d1fd6e6aeb7d",
          "blockNumber": "0x25be776",
          "blockTimestamp": "0x6a2351cd",
          "transactionHash": "0x6ef79b245fafda8c832368dede8d5aefb2bdf3426580623c20d3af6df5b49ec6",
          "transactionIndex": "0x2",
          "logIndex": "0x2",
          "removed": false
        },
        {
          "address": "0xe3ea6971c66121cb24f878aee30f78a39b3fc94b",
          "topics": [
            "0xf9a09e2869a1f88523f00504328d7965866201bafe501573db2e114e3375a086",
            "0x0000000000000000000000000000000000000000000000000000000000000003"
          ],
          "data": "0x00000000000000000000000000000000000000000000000010a741a462780000",
          "blockHash": "0x24a16399d1e805e8f74b16e61762b509a170ef44f03c4aca1fb4d1fd6e6aeb7d",
          "blockNumber": "0x25be776",
          "blockTimestamp": "0x6a2351cd",
          "transactionHash": "0x6ef79b245fafda8c832368dede8d5aefb2bdf3426580623c20d3af6df5b49ec6",
          "transactionIndex": "0x2",
          "logIndex": "0x3",
          "removed": false
        }
      ],
      "logsBloom": "0x04000000000000000000000000000000000000000000080000000000000000000000000200000000000000000000000000000000020000000000000000040000000000000000000000000000000000000000000000040000000000000000000000000000000000000000000000000200000000000000000800000000000000000000000000000000000000000000000000000000000000000000000000000000000000000000000000000100000000000000000000800000000000000000400000000000000000000000000000000000000000000000080000000000000040000000000000020000000000000000000000000000008000000000000000000000",
      "type": "0x2",
      "transactionHash": "0x6ef79b245fafda8c832368dede8d5aefb2bdf3426580623c20d3af6df5b49ec6",
      "transactionIndex": "0x2",
      "blockHash": "0x24a16399d1e805e8f74b16e61762b509a170ef44f03c4aca1fb4d1fd6e6aeb7d",
      "blockNumber": "0x25be776",
      "gasUsed": "0x17d61",
      "effectiveGasPrice": "0xba43b7401",
      "blobGasUsed": "0xc030",
      "from": "0x666aa4f5a674b9e50d8843f45a6ef40244318550",
      "to": "0xe3ea6971c66121cb24f878aee30f78a39b3fc94b",
      "contractAddress": null,
      "daFootprintGasScalar": "0x190",
      "l1BaseFeeScalar": "0x2943b",
      "l1BlobBaseFee": "0x39597f5",
      "l1BlobBaseFeeScalar": "0x45567c",
      "l1Fee": "0x408dc563292ce",
      "l1GasPrice": "0x3c2d1e92",
      "l1GasUsed": "0x7b0",
      "operatorFeeConstant": "0x0",
      "operatorFeeScalar": "0x5f5e100",
      "tokenRatio": "0xc01"
    },
    {
      "status": "0x1",
      "cumulativeGasUsed": "0x43c28",
      "logs": [
        {
          "address": "0x27dae5ca1b42918f13b7b454a76e5d3bbcc6989b",
          "topics": [
            "0x56b5f80d8cac1479698aa7d01605fd6111e90b15fc4d2b377417f46034876cbd",
            "0x000000000000000000000000679a658d91c9cadef966d631c08b5c1feb72b536",
            "0x000000000000000000000000e3ea6971c66121cb24f878aee30f78a39b3fc94b"
          ],
          "data": "0x",
          "blockHash": "0xa380a3027a0c5644cdfc952f2a7510ab83604b1f8b322877e06b04140343235d",
          "blockNumber": "0x25be779",
          "blockTimestamp": "0x6a2351d3",
          "transactionHash": "0x626689b606a4bb23fe3837c5d5a177db23b2e4641f33c7f849e28b21e164e576",
          "transactionIndex": "0x2",
          "logIndex": "0x3",
          "removed": false
        }
      ],
      "logsBloom": "0x00000000000000000000000000000000000000000080000000000000000000000000000000000000000000000000000000000000000000000000001000000000000000000200000000000000000000000000000000000000000000000000000000040000000000000000000400000000000000000000000000000000000000000010000000000000020000000000000000000000000000000000000000000010000000000000000000000004000000080000000000000200000000000000000000000000000000000000000000000000000000020000000000000000000000000000000000000000000000000000000000000000000000000000000000000000",
      "type": "0x2",
      "transactionHash": "0x626689b606a4bb23fe3837c5d5a177db23b2e4641f33c7f849e28b21e164e576",
      "transactionIndex": "0x2",
      "blockHash": "0xa380a3027a0c5644cdfc952f2a7510ab83604b1f8b322877e06b04140343235d",
      "blockNumber": "0x25be779",
      "gasUsed": "0x76dd",
      "effectiveGasPrice": "0xba43b7401",
      "blobGasUsed": "0x9c40",
      "from": "0x666aa4f5a674b9e50d8843f45a6ef40244318550",
      "to": "0x27dae5ca1b42918f13b7b454a76e5d3bbcc6989b",
      "contractAddress": null,
      "daFootprintGasScalar": "0x190",
      "l1BaseFeeScalar": "0x2943b",
      "l1BlobBaseFee": "0x3e08c99",
      "l1BlobBaseFeeScalar": "0x45567c",
      "l1Fee": "0x33001620cacc8",
      "l1GasPrice": "0x39d607b2",
      "l1GasUsed": "0x640",
      "operatorFeeConstant": "0x0",
      "operatorFeeScalar": "0x5f5e100",
      "tokenRatio": "0xc01"
    },
    {
      "status": "0x1",
      "cumulativeGasUsed": "0x3ed70",
      "logs": [
        {
          "address": "0x943bef0f81b47d1aba4b2efa05624e041595706d",
          "topics": [
            "0x6909bd19f2160a4cbad9a376a13b95b432260c784caa8e1e7bbed6f7b193efcd",
            "0x0000000000000000000000000000000000000000000000000000000000000001",
            "0x000000000000000000000000666aa4f5a674b9e50d8843f45a6ef40244318550"
          ],
          "data": "0x000000000000000000000000000000000000000000000000000000006a235fbb000000000000000000000000000000000000000000000000000000006a24b13b00000000000000000000000000000000000000000000021e19e0c9bab24000000000000000000000000000000000000000000000000000000000000000000000000000000000000000000000000000000000000000000000000000000000000000000000000000000000000000000000000000000000000000000000000000c00000000000000000000000000000000000000000000000000000000000000003000000000000000000000000000000000000000000000000000000000000000100000000000000000000000000000000000000000000000000000000000000020000000000000000000000000000000000000000000000000000000000000003",
          "blockHash": "0x25ef778f9f03ad5666f3d14490cdcced35a3615966419d5a1b771b56b699a61a",
          "blockNumber": "0x25be77c",
          "blockTimestamp": "0x6a2351d9",
          "transactionHash": "0x04d15c8fd20b6a31e4e1987cb6b1d187a1e5d7e6f4f7b8ab0d6a168fe3a553b8",
          "transactionIndex": "0x2",
          "logIndex": "0x1",
          "removed": false
        }
      ],
      "logsBloom": "0x00000000000000000000000000000000000000000000000000000000000000000004012000000000000000000000000000000000000000000000000000040000000000000000000010000000000000000000000000040000000000010000000000000000000000000000000000000000000000100000000000000000000000000000000000000000000004000000000000000000000000000000000000000000000000000000000000000000000000000000000000000000000000000000002000000000000000000000000000000000000000000000000000000000000040000000000800000000000000000000000000000000000000000000000000000000",
      "type": "0x2",
      "transactionHash": "0x04d15c8fd20b6a31e4e1987cb6b1d187a1e5d7e6f4f7b8ab0d6a168fe3a553b8",
      "transactionIndex": "0x2",
      "blockHash": "0x25ef778f9f03ad5666f3d14490cdcced35a3615966419d5a1b771b56b699a61a",
      "blockNumber": "0x25be77c",
      "gasUsed": "0x2ad5d",
      "effectiveGasPrice": "0xba43b7401",
      "blobGasUsed": "0xa730",
      "from": "0x666aa4f5a674b9e50d8843f45a6ef40244318550",
      "to": "0x943bef0f81b47d1aba4b2efa05624e041595706d",
      "contractAddress": null,
      "daFootprintGasScalar": "0x190",
      "l1BaseFeeScalar": "0x2943b",
      "l1BlobBaseFee": "0x3e08c99",
      "l1BlobBaseFeeScalar": "0x45567c",
      "l1Fee": "0x3712895ed77ea",
      "l1GasPrice": "0x39d607b2",
      "l1GasUsed": "0x6bf",
      "operatorFeeConstant": "0x0",
      "operatorFeeScalar": "0x5f5e100",
      "tokenRatio": "0xc01"
    },
    {
      "status": "0x1",
      "cumulativeGasUsed": "0x3ede7",
      "logs": [
        {
          "address": "0xd12719de9e5f76c2a6c2a91cdf2f0ff65d366bed",
          "topics": [
            "0xddf252ad1be2c89b69c2b068fc378daa952ba7f163c4a11628f55a4df523b3ef",
            "0x0000000000000000000000000000000000000000000000000000000000000000",
            "0x000000000000000000000000666aa4f5a674b9e50d8843f45a6ef40244318550",
            "0x0000000000000000000000000000000000000000000000000000000000000001"
          ],
          "data": "0x",
          "blockHash": "0x4c6ac5d8ecfbc9d658c1825fd43b69747f623cb788c20fda9ffa4d5f633d5cc4",
          "blockNumber": "0x25be77e",
          "blockTimestamp": "0x6a2351dd",
          "transactionHash": "0xf94e6a2464e6540d08a290cc85468e5722c54a7e43793298f730368dda13e037",
          "transactionIndex": "0x1",
          "logIndex": "0x0",
          "removed": false
        },
        {
          "address": "0xd12719de9e5f76c2a6c2a91cdf2f0ff65d366bed",
          "topics": [
            "0x91a6741d34b35e9a57e79a03ee5cdeba57ec466a6d2310fa9f4507174fc246f5",
            "0x0000000000000000000000000000000000000000000000000000000000000001",
            "0x000000000000000000000000666aa4f5a674b9e50d8843f45a6ef40244318550",
            "0x000000000000000000000000c1cc95cb64c08bc0fb69ca380d6227a9ed061c4e"
          ],
          "data": "0x69fe5d80ea0a9385d3eeda63ec0554f9b08a7e9e7d1252274663c42319869f44000000000000000000000000000000000000000000000000000000006a2351dd",
          "blockHash": "0x4c6ac5d8ecfbc9d658c1825fd43b69747f623cb788c20fda9ffa4d5f633d5cc4",
          "blockNumber": "0x25be77e",
          "blockTimestamp": "0x6a2351dd",
          "transactionHash": "0xf94e6a2464e6540d08a290cc85468e5722c54a7e43793298f730368dda13e037",
          "transactionIndex": "0x1",
          "logIndex": "0x1",
          "removed": false
        }
      ],
      "logsBloom": "0x00000000000000000040000000000000000000100000000000800000000000002000000000000000000100000000000000000000000000000000000000040000000000000000000010000008000000000000000000040000000000000000000000000800020000000000000000000800000000000000000000000010000000000000800001000000000004000000000000000000000000000000000000000000000000000000000000000000000000000000000000000000000000000000000000000002000000000000000000000000000000000000000000000000000060000000020800000000000000000000000000000000000000000000000000000000",
      "type": "0x2",
      "transactionHash": "0xf94e6a2464e6540d08a290cc85468e5722c54a7e43793298f730368dda13e037",
      "transactionIndex": "0x1",
      "blockHash": "0x4c6ac5d8ecfbc9d658c1825fd43b69747f623cb788c20fda9ffa4d5f633d5cc4",
      "blockNumber": "0x25be77e",
      "gasUsed": "0x33918",
      "effectiveGasPrice": "0xba43b7401",
      "blobGasUsed": "0xdc50",
      "from": "0x666aa4f5a674b9e50d8843f45a6ef40244318550",
      "to": "0xd12719de9e5f76c2a6c2a91cdf2f0ff65d366bed",
      "contractAddress": null,
      "daFootprintGasScalar": "0x190",
      "l1BaseFeeScalar": "0x2943b",
      "l1BlobBaseFee": "0x3e08c99",
      "l1BlobBaseFeeScalar": "0x45567c",
      "l1Fee": "0x48231a666fe5d",
      "l1GasPrice": "0x39d607b2",
      "l1GasUsed": "0x8d7",
      "operatorFeeConstant": "0x0",
      "operatorFeeScalar": "0x5f5e100",
      "tokenRatio": "0xc01"
    },
    {
      "status": "0x1",
      "cumulativeGasUsed": "0x3ab63",
      "logs": [
        {
          "address": "0xd12719de9e5f76c2a6c2a91cdf2f0ff65d366bed",
          "topics": [
            "0xddf252ad1be2c89b69c2b068fc378daa952ba7f163c4a11628f55a4df523b3ef",
            "0x0000000000000000000000000000000000000000000000000000000000000000",
            "0x000000000000000000000000666aa4f5a674b9e50d8843f45a6ef40244318550",
            "0x0000000000000000000000000000000000000000000000000000000000000002"
          ],
          "data": "0x",
          "blockHash": "0x45de2c140e25d6d846e90888046586f4b5b6591603f352deb958ac18b26049f2",
          "blockNumber": "0x25be781",
          "blockTimestamp": "0x6a2351e3",
          "transactionHash": "0x794a48a71d50580ea85281dec5ceb3a48aa4d7387d5360def78bd167fea0623d",
          "transactionIndex": "0x1",
          "logIndex": "0x0",
          "removed": false
        },
        {
          "address": "0xd12719de9e5f76c2a6c2a91cdf2f0ff65d366bed",
          "topics": [
            "0x91a6741d34b35e9a57e79a03ee5cdeba57ec466a6d2310fa9f4507174fc246f5",
            "0x0000000000000000000000000000000000000000000000000000000000000002",
            "0x000000000000000000000000666aa4f5a674b9e50d8843f45a6ef40244318550",
            "0x000000000000000000000000255f36970464f7ab35b127c34b766496a1961a65"
          ],
          "data": "0xb4a8485ec922165cf4ea273c172586b2529ce52b902256e2c8809653e5f7df09000000000000000000000000000000000000000000000000000000006a2351e3",
          "blockHash": "0x45de2c140e25d6d846e90888046586f4b5b6591603f352deb958ac18b26049f2",
          "blockNumber": "0x25be781",
          "blockTimestamp": "0x6a2351e3",
          "transactionHash": "0x794a48a71d50580ea85281dec5ceb3a48aa4d7387d5360def78bd167fea0623d",
          "transactionIndex": "0x1",
          "logIndex": "0x1",
          "removed": false
        }
      ],
      "logsBloom": "0x04000000000000000000000000000000000000100000000000800000000000002000000000000000000000000000000000000000000000000000000000000000000000000000000010000008000000000000000000000000000000000000000080000800020000000000000000000800000000000000000000000010000000000000800000000000000004000000000000000000000000000000000000000000000000000000000000000104000000000000000000000000000000000000000000000002000000000000000000000000000000000000000000000000000020000000020800000000000100000000000000000000008000000000000000000000",
      "type": "0x2",
      "transactionHash": "0x794a48a71d50580ea85281dec5ceb3a48aa4d7387d5360def78bd167fea0623d",
      "transactionIndex": "0x1",
      "blockHash": "0x45de2c140e25d6d846e90888046586f4b5b6591603f352deb958ac18b26049f2",
      "blockNumber": "0x25be781",
      "gasUsed": "0x2f694",
      "effectiveGasPrice": "0xba43b7401",
      "blobGasUsed": "0xe420",
      "from": "0x666aa4f5a674b9e50d8843f45a6ef40244318550",
      "to": "0xd12719de9e5f76c2a6c2a91cdf2f0ff65d366bed",
      "contractAddress": null,
      "daFootprintGasScalar": "0x190",
      "l1BaseFeeScalar": "0x2943b",
      "l1BlobBaseFee": "0x38b5ba9",
      "l1BlobBaseFeeScalar": "0x45567c",
      "l1Fee": "0x526f6f361d15b",
      "l1GasPrice": "0x410fd73a",
      "l1GasUsed": "0x927",
      "operatorFeeConstant": "0x0",
      "operatorFeeScalar": "0x5f5e100",
      "tokenRatio": "0xc01"
    },
    {
      "status": "0x1",
      "cumulativeGasUsed": "0x3ab03",
      "logs": [
        {
          "address": "0xd12719de9e5f76c2a6c2a91cdf2f0ff65d366bed",
          "topics": [
            "0xddf252ad1be2c89b69c2b068fc378daa952ba7f163c4a11628f55a4df523b3ef",
            "0x0000000000000000000000000000000000000000000000000000000000000000",
            "0x000000000000000000000000666aa4f5a674b9e50d8843f45a6ef40244318550",
            "0x0000000000000000000000000000000000000000000000000000000000000003"
          ],
          "data": "0x",
          "blockHash": "0x41111f2f2f7b523b29e130b86c4f590f0b8d9ec0e58e40295a95a58677d642e1",
          "blockNumber": "0x25be784",
          "blockTimestamp": "0x6a2351e9",
          "transactionHash": "0x4f74df09dce6118a9bbf9b9c67bd7dfe9f3122d468f8a864ffe5f7d11f19afac",
          "transactionIndex": "0x1",
          "logIndex": "0x0",
          "removed": false
        },
        {
          "address": "0xd12719de9e5f76c2a6c2a91cdf2f0ff65d366bed",
          "topics": [
            "0x91a6741d34b35e9a57e79a03ee5cdeba57ec466a6d2310fa9f4507174fc246f5",
            "0x0000000000000000000000000000000000000000000000000000000000000003",
            "0x000000000000000000000000666aa4f5a674b9e50d8843f45a6ef40244318550",
            "0x0000000000000000000000009c68b3427d8014090a695b419bd7c55ab8773150"
          ],
          "data": "0xc030b869d04c8f147c0d04907446296542a98a1adfaaace40f316fa612e91d12000000000000000000000000000000000000000000000000000000006a2351e9",
          "blockHash": "0x41111f2f2f7b523b29e130b86c4f590f0b8d9ec0e58e40295a95a58677d642e1",
          "blockNumber": "0x25be784",
          "blockTimestamp": "0x6a2351e9",
          "transactionHash": "0x4f74df09dce6118a9bbf9b9c67bd7dfe9f3122d468f8a864ffe5f7d11f19afac",
          "transactionIndex": "0x1",
          "logIndex": "0x1",
          "removed": false
        }
      ],
      "logsBloom": "0x00000000000000000000000000000000000000100000000000800000000000002000000000000000000000000000000000000000020000000000000000000000000000000000000010000008000000000000000000000000000000000000000000000800020000000000000000000800000000000000000000000010000000000000800000000000000004000000000000000000000000000000000000000000000000000000000000000000000000000000000000800000000000000000400004000002002000000000000000000000000000000000000000000000000020000000020800000000000000000000000000000200000000000000000000000000",
      "type": "0x2",
      "transactionHash": "0x4f74df09dce6118a9bbf9b9c67bd7dfe9f3122d468f8a864ffe5f7d11f19afac",
      "transactionIndex": "0x1",
      "blockHash": "0x41111f2f2f7b523b29e130b86c4f590f0b8d9ec0e58e40295a95a58677d642e1",
      "blockNumber": "0x25be784",
      "gasUsed": "0x2f634",
      "effectiveGasPrice": "0xba43b7401",
      "blobGasUsed": "0xdac0",
      "from": "0x666aa4f5a674b9e50d8843f45a6ef40244318550",
      "to": "0xd12719de9e5f76c2a6c2a91cdf2f0ff65d366bed",
      "contractAddress": null,
      "daFootprintGasScalar": "0x190",
      "l1BaseFeeScalar": "0x2943b",
      "l1BlobBaseFee": "0x38b5ba9",
      "l1BlobBaseFeeScalar": "0x45567c",
      "l1Fee": "0x4f23bc0789f5b",
      "l1GasPrice": "0x410fd73a",
      "l1GasUsed": "0x8c9",
      "operatorFeeConstant": "0x0",
      "operatorFeeScalar": "0x5f5e100",
      "tokenRatio": "0xc01"
    },
    {
      "status": "0x1",
      "cumulativeGasUsed": "0x723b9",
      "logs": [
        {
          "address": "0x943bef0f81b47d1aba4b2efa05624e041595706d",
          "topics": [
            "0x1762b3169bda5276401acef8b614b0f4029ec1db595b349ba101b3d86af8aa20",
            "0x0000000000000000000000000000000000000000000000000000000000000001",
            "0x0000000000000000000000000000000000000000000000000000000000000001",
            "0x000000000000000000000000666aa4f5a674b9e50d8843f45a6ef40244318550"
          ],
          "data": "0x0000000000000000000000000000000000000000000000000000000000000000",
          "blockHash": "0xf0720c80b152dfaef7cf7724f35d944b82e4e5180e4f2cded30b48145d6c5f2f",
          "blockNumber": "0x25be786",
          "blockTimestamp": "0x6a2351ed",
          "transactionHash": "0x2682d72e8b0ed29edccf62931f5847bde9fef0b500b14f48608040ffcb45f8ed",
          "transactionIndex": "0x2",
          "logIndex": "0x2",
          "removed": false
        }
      ],
      "logsBloom": "0x00000000000000000000000000000000000000000000000000000000000000000000002000000000000000000000000000000000000000000000000000040000010000000040000010000000000000000000000000040000000000010000000000000000000000000000000000000000000000100000000000000000000000000000000000000000000004000000000000000000000000000000000000000000000000000000000000000000000000000000000000000000000000000000000000000000000000000000000000000000000100000000000000000000000040000000000800000000000000000000000000000000000000000000000000000000",
      "type": "0x2",
      "transactionHash": "0x2682d72e8b0ed29edccf62931f5847bde9fef0b500b14f48608040ffcb45f8ed",
      "transactionIndex": "0x2",
      "blockHash": "0xf0720c80b152dfaef7cf7724f35d944b82e4e5180e4f2cded30b48145d6c5f2f",
      "blockNumber": "0x25be786",
      "gasUsed": "0x19f5c",
      "effectiveGasPrice": "0xba43b7401",
      "blobGasUsed": "0x9c40",
      "from": "0x666aa4f5a674b9e50d8843f45a6ef40244318550",
      "to": "0x943bef0f81b47d1aba4b2efa05624e041595706d",
      "contractAddress": null,
      "daFootprintGasScalar": "0x190",
      "l1BaseFeeScalar": "0x2943b",
      "l1BlobBaseFee": "0x3922b40",
      "l1BlobBaseFeeScalar": "0x45567c",
      "l1Fee": "0x367048c9314b9",
      "l1GasPrice": "0x3eb058a6",
      "l1GasUsed": "0x640",
      "operatorFeeConstant": "0x0",
      "operatorFeeScalar": "0x5f5e100",
      "tokenRatio": "0xc01"
    },
    {
      "status": "0x1",
      "cumulativeGasUsed": "0x2115f",
      "logs": [
        {
          "address": "0x943bef0f81b47d1aba4b2efa05624e041595706d",
          "topics": [
            "0x1762b3169bda5276401acef8b614b0f4029ec1db595b349ba101b3d86af8aa20",
            "0x0000000000000000000000000000000000000000000000000000000000000001",
            "0x0000000000000000000000000000000000000000000000000000000000000002",
            "0x000000000000000000000000666aa4f5a674b9e50d8843f45a6ef40244318550"
          ],
          "data": "0x0000000000000000000000000000000000000000000000000000000000000000",
          "blockHash": "0xc79d73064eb9d8a51bf4176c57e50546a2a1c3fa695dbbe7502777e6d3006de9",
          "blockNumber": "0x25be789",
          "blockTimestamp": "0x6a2351f3",
          "transactionHash": "0x57ded346c746292235c670e0b47d2832bd4b9ca814369e4277125765c01be6ac",
          "transactionIndex": "0x1",
          "logIndex": "0x0",
          "removed": false
        }
      ],
      "logsBloom": "0x04000000000000000000000000000000000000000000000000000000000000000000002000000000000000000000000000000000000000000000000000040000010000000040000010000000000000000000000000040000000000010000000000000000000000000000000000000000000000100000000000000000000000000000000000000000000004000000000000000000000000000000000000000000000000000000000000000100000000000000000000000000000000000000000000000000000000000000000000000000000100000000000000000000000040000000000800000000000000000000000000000000008000000000000000000000",
      "type": "0x2",
      "transactionHash": "0x57ded346c746292235c670e0b47d2832bd4b9ca814369e4277125765c01be6ac",
      "transactionIndex": "0x1",
      "blockHash": "0xc79d73064eb9d8a51bf4176c57e50546a2a1c3fa695dbbe7502777e6d3006de9",
      "blockNumber": "0x25be789",
      "gasUsed": "0x15c90",
      "effectiveGasPrice": "0xba43b7401",
      "blobGasUsed": "0x9c40",
      "from": "0x666aa4f5a674b9e50d8843f45a6ef40244318550",
      "to": "0x943bef0f81b47d1aba4b2efa05624e041595706d",
      "contractAddress": null,
      "daFootprintGasScalar": "0x190",
      "l1BaseFeeScalar": "0x2943b",
      "l1BlobBaseFee": "0x3922b40",
      "l1BlobBaseFeeScalar": "0x45567c",
      "l1Fee": "0x367048c9314b9",
      "l1GasPrice": "0x3eb058a6",
      "l1GasUsed": "0x640",
      "operatorFeeConstant": "0x0",
      "operatorFeeScalar": "0x5f5e100",
      "tokenRatio": "0xc01"
    },
    {
      "status": "0x1",
      "cumulativeGasUsed": "0x2115f",
      "logs": [
        {
          "address": "0x943bef0f81b47d1aba4b2efa05624e041595706d",
          "topics": [
            "0x1762b3169bda5276401acef8b614b0f4029ec1db595b349ba101b3d86af8aa20",
            "0x0000000000000000000000000000000000000000000000000000000000000001",
            "0x0000000000000000000000000000000000000000000000000000000000000003",
            "0x000000000000000000000000666aa4f5a674b9e50d8843f45a6ef40244318550"
          ],
          "data": "0x0000000000000000000000000000000000000000000000000000000000000000",
          "blockHash": "0x4554be006b8edac47e80b12dc8239aa5bb8fe4635bc037d79fe0400c2542963e",
          "blockNumber": "0x25be78c",
          "blockTimestamp": "0x6a2351f9",
          "transactionHash": "0x7f88c40f8098b16ea3465e096a9ef4f4a791e6eb2db5d3573457b9ba0bdc42e5",
          "transactionIndex": "0x1",
          "logIndex": "0x0",
          "removed": false
        }
      ],
      "logsBloom": "0x00000000000000000000000000000000000000000000000000000000000000000000002000000000000000000000000000000000020000000000000000040000010000000040000010000000000000000000000000040000000000010000000000000000000000000000000000000000000000100000000000000000000000000000000000000000000004000000000000000000000000000000000000000000000000000000000000000000000000000000000000800000000000000000400000000000000000000000000000000000000100000000000000000000000040000000000800000000000000000000000000000000000000000000000000000000",
      "type": "0x2",
      "transactionHash": "0x7f88c40f8098b16ea3465e096a9ef4f4a791e6eb2db5d3573457b9ba0bdc42e5",
      "transactionIndex": "0x1",
      "blockHash": "0x4554be006b8edac47e80b12dc8239aa5bb8fe4635bc037d79fe0400c2542963e",
      "blockNumber": "0x25be78c",
      "gasUsed": "0x15c90",
      "effectiveGasPrice": "0xba43b7401",
      "blobGasUsed": "0x9c40",
      "from": "0x666aa4f5a674b9e50d8843f45a6ef40244318550",
      "to": "0x943bef0f81b47d1aba4b2efa05624e041595706d",
      "contractAddress": null,
      "daFootprintGasScalar": "0x190",
      "l1BaseFeeScalar": "0x2943b",
      "l1BlobBaseFee": "0x3a6e8f5",
      "l1BlobBaseFeeScalar": "0x45567c",
      "l1Fee": "0x352ce2da13c75",
      "l1GasPrice": "0x3cf57056",
      "l1GasUsed": "0x640",
      "operatorFeeConstant": "0x0",
      "operatorFeeScalar": "0x5f5e100",
      "tokenRatio": "0xc01"
    }
  ],
  "libraries": [],
  "pending": [],
  "returns": {},
  "timestamp": 1780699642169,
  "chain": 5003,
  "commit": "be36ce602"
}